:100000002CC050C04FC0DBC54DC04CC04BC04AC017
:1000100049C048C047C089C545C044C043C0D3C6D5
:100020001DC600003A00370000003B003800000009
:100030003900360001010101010101010202020241
:1000400001020408102040800402010800000000A2
:100050000004030201000000600911241FBECFE567
:10006000D2E0DEBFCDBF10E0A0E6B0E0E2E8F7E10D
:1000700002C005900D92AA3AB107D9F721E0AAEA89
:10008000B0E001C01D92AC37B207E1F710E0CDE25D
:10009000D0E003C02197FE016CDBCC32D107D1F751
:1000A000D9D66DCBADCF80917B01882329F02091EB
:1000B0007A0182130BC007C0909179018091780179
:1000C000891B8F7069F48FEF9FEF0895E22FF0E0A6
:1000D000E655FF4F808190E02F5F20937A010895CD
:1000E00090917901809178019817E1F3E09179017D
:1000F000EF5FEF70E0937901F0E0E655FF4F80810C
:1001000090E00895813019F480B78F7704C0823071
:1001100021F480B78F7D80BF0895833019F48FB5A7
:100120008F7704C0843019F48FB58F7D8FBD08950B
:10013000CF93DF9387FD8F77282F30E0F901E45BC1
:10014000FF4F8491F901E05CFF4FD491F901EC5C21
:10015000FF4FC491CC2389F08111D4DFEC2FF0E064
:10016000EE0FFF1FE25DFF4FA591B491EC91ED23DF
:1001700081E090E021F480E002C080E090E0DF9137
:10018000CF910895CF9389E0D3DF892B11F0C0E69A
:1001900001C0C1E68AE0CCDF892B09F4C26081E0AE
:1001A000C7DF892B09F4C46082E0C2DF892B11F418
:1001B000C86009C0C03639F48091A50098EF980F47
:1001C000903708F4C82FC093A500D498D6981DB8CE
:1001D00080EF8EB9109279011092780110925A0135
:1001E00010925901C0935F0110925E0110925D015F
:1001F00010925C0110925B01DC9ADE9AD49AD69838
:1002000098EA9DB98EB98DEA93E090935C01809352
:100210005B018EED92E090935E0180935D01CF9142
:1002200008951F93CF93DF93162F87FD8F77282F85
:1002300030E0F901E45BFF4F8491F901E05CFF4F8E
:10024000D491F901EC5CFF4FC491CC23D1F0811122
:1002500059DFEC2FF0E0EE0FFF1FE85DFF4FA59197
:10026000B491111108C09FB7F8948C91D095D82300
:10027000DC939FBF06C08FB7F894EC91DE2BDC9324
:100280008FBFDF91CF911F910895CF93DF9387FDAB
:100290008F7790E0FC01E05CFF4F2491FC01EC5C67
:1002A000FF4F8491882361F190E0880F991FFC0132
:1002B000EE5DFF4FC591D491FC01E85DFF4FA59124
:1002C000B491611109C09FB7F89488812095822369
:1002D0008883EC912E230BC0623061F49FB7F894B1
:1002E0008881322F309583238883EC912E2B2C9399
:1002F0009FBF06C08FB7F894E8812E2B28838FBF4D
:10030000DF91CF910895CF93DF93EC0161E087E017
:10031000BCDF1C161D0614F060E004C0CF3FD10501
:100320002CF061E087E0DF91CF917BCFE3E5F0E057
:10033000E491E13029F480B7806880BFC6BF1BC05C
:10034000E23029F480B7806280BFCCBF14C0E330B4
:1003500031F48FB580688FBDDBBDCABD0CC0E43001
:1003600031F48FB580628FBDD9BDC8BD04C0C0381F
:10037000D105BCF6D1CFDF91CF9108953FB7F89466
:100380008091550190915601A0915701B09158016B
:1003900022B708B600FE05C02F3F19F00196A11D37
:1003A000B11D3FBFBA2FA92F982F8827820F911D0B
:1003B000A11DB11DBC01CD0143E0660F771F881F51
:1003C000991F4A95D1F708952FB7F894609151017C
:1003D0007091520180915301909154012FBF089563
:1003E0000895FC0186AD811104C081E024AD95AD76
:1003F000291380E00895CF92DF92EF92FF92CF937E
:10040000DF93C0908A00D0908B00E12CF12CB6DFF6
:10041000EB01C114D104E104F10499F0AFDF6C1BCE
:100420007D0B683E7340A8F3C114D104E104F104CC
:1004300081F381E0C81AD108E108F108C851DC4F06
:10044000EDCF88E075DE21E0892B09F020E0809176
:10045000890020FB86F980938900B6DF20918A000D
:1004600030918B006B017C01C21AD30AE108F108BC
:1004700080914801882349F08091470190E00196DE
:100480006FE070E04FD9809347018091460190E082
:10049000FC01EE0FFF1FEE0FFF1FE65FFE4FC08255
:1004A000D182E282F38201966FE070E03BD98093C3
:1004B000460190914701981303C081E08093480161
:1004C0008AE091E08EDF90918D0080FB96F9909309
:1004D0008D009091480180918D0090FB85F980936B
:1004E0008D0080918C0085FF04C08091890086FD7D
:1004F00058C088E01DDE019709F059C0809189003D
:1005000080688093890060DF20918A0030918B00A1
:100510006B017C01C21AD30AE108F108809109013C
:10052000882349F08091080190E001966FE070E027
:10053000F9D8809308018091070190E0FC01EE0F4B
:10054000FF1FEE0FFF1FE553FF4FC082D182E282F3
:10055000F38201966FE070E0E5D8809307019091F7
:100560000801981303C081E0809309018BEC90E0AF
:1005700038DF9091960080FB96F9909396009091C9
:1005800009018091960090FB85F9809396008091F7
:100590008C0086FF0CC080918C00806880938C005A
:1005A00006C080918C00806880938C00A2CFDF9180
:1005B000CF91FF90EF90DF90CF900895CF92DF9290
:1005C000EF92FF9288E0B4DD21E0892B09F020E072
:1005D0008091890020FB86F980938900F5DEE09107
:1005E0004701F0E0EE0FFF1FEE0FFF1FE65FFE4F2B
:1005F000C080D180E280F380DC01CB018C199D09A1
:10060000AE09BF098093920090939300A093940049
:10061000B0939500D9DE6B017C018AE091E0E1DEC8
:10062000811113C08091460190E00E966FE070E05A
:1006300079D8FC01EE0FFF1FEE0FFF1FE65FFE4FA4
:1006400080819181A281B38103C080E090E0DC01D0
:10065000C81AD90AEA0AFB0AC0928E00D0928F000B
:10066000E0929000F0929100AFDEE0910801F0E09E
:10067000EE0FFF1FEE0FFF1FE553FF4FC080D1802D
:10068000E280F380DC01CB018C199D09AE09BF0922
:1006900080939B0090939C00A0939D00B0939E003C
:1006A00093DE6B017C018BEC90E09BDE811113C02B
:1006B0008091070190E00E966FE070E033D8FC0166
:1006C000EE0FFF1FEE0FFF1FE553FF4F808191815B
:1006D000A281B38103C080E090E0DC01C81AD90A8E
:1006E000EA0AFB0AC0929700D0929800E092990023
:1006F000F0929A008091CA0040E250E0481B5109F4
:100700006091CA0070E020E030E04217530701F129
:100710009091590180915A019F5F891B8F70A9F0B8
:10072000809159018F5F8F7090915A018917E1F381
:10073000E82FF0E0E654FF4FDB01A20FB31FA757ED
:10074000BF4F9C919083809359012F5F3F4FDDCF26
:10075000FF90EF90DF90CF900895FF920F931F933B
:10076000CF93DF938C019FDC8093CA00F12C015062
:100770001109CF2DD0E0C017D10784F594DC9091FA
:10078000CA009E01290F311D2032310528F59091B4
:10079000CA002091CA00FE01E20FF11DE757FF4F8A
:1007A000DE01A90FB11DA05ABF4F9C9190952081E9
:1007B000922390839091CA002091CA00FE01E20F1B
:1007C000F11DE757FF4FC90FD11DC05ADF4F988168
:1007D00089239081982B9083F394CBCF80918D00C7
:1007E00087FF30C0109248018091470190914601E7
:1007F000981365C0E0914701F0E0EE0FFF1FEE0F88
:10080000FF1FE65FFE4F80819181A281B3818093BB
:10081000920090939300A0939400B09395008091E0
:100820008D008F7D80938D008AE091E0DADD9091DC
:100830008D0080FB96F990938D0080918D008F77CD
:1008400080938D008091960087FF30C0109209013F
:100850008091080190910701981339C0E091080137
:10086000F0E0EE0FFF1FEE0FFF1FE553FF4F8081FB
:100870009181A281B38180939B0090939C00A0936F
:100880009D00B0939E00809196008F7D809396008E
:100890008BEC90E0A6DD9091960080FB96F990930A
:1008A0009600809196008F778093960081E08093E8
:1008B0008800DF91CF911F910F91FF90089590E0F4
:1008C00001966FE070E02ED78093470193CF90E0C0
:1008D00001966FE070E026D780930801BFCF8F921A
:1008E0009F92AF92BF92CF92DF92EF92FF920F93BF
:1008F0001F93CF93DF9360919F0090916001C0910F
:10090000A00080916101C81305C081E0691303C094
:1009100080E001C081E00091A1001091A20020912F
:100920006201309163010217130709F081E0209101
:10093000A3003091A40040916401509165012417F7
:10094000350719F4882309F475C060936001C093DA
:10095000610110936301009362013093650120935C
:100960006401D0E070E080E090E0E6D56B017C01AE
:10097000BE010D2E000C880B990BE0D59B01AC013C
:10098000C701B60140D59B01AC01C6D429D5A8D575
:100990006B017C0170936F0160936E01B80180E080
:1009A00090E0CAD54B015C01B60180E090E0C4D56F
:1009B0009B01AC01C501B40126D56B017C0120E08F
:1009C00030E0A90187D620E030E040E05FE387FD1A
:1009D00004C0C701B601A0D403C0C701B6019BD4AF
:1009E0007AD5609370017093710180937201909336
:1009F0007301D0937701C0937601E6DC60936A01BE
:100A000070936B0180936C0190936D01DDDC6093BA
:100A100066017093670180936801909369018091EA
:100A2000610190E0909377018093760110927501B7
:100A300010927401DF91CF911F910F91FF90EF9071
:100A4000DF90CF90BF90AF909F908F900895CF93FD
:100A5000DF93EB014AD48883CE01DF91CF910895D3
:100A60000F931F93CF93DF938C01EB013ED48883C8
:100A7000C80101963AD48983CE01DF91CF911F91AD
:100A80000F910895FF920F931F93CF93DF93EC0183
:100A9000F62E08811981C80128D4F81619F06F2D97
:100AA000C8012BD4CE01DF91CF911F910F91FF9000
:100AB0000895EF92FF920F931F93CF93DF9300D08F
:100AC000CDB7DEB78C017B01FB0160819A838983FE
:100AD000CE010196D7DFF70161810F5F1F4F1A83A7
:100AE0000983CE010196CEDFC7010F900F90DF91F1
:100AF000CF911F910F91FF90EF9008950F931F9347
:100B0000CF93DF9300D0CDB7DEB78B01FB016081BF
:100B10009A838983CE010196B5DFC8010F900F90AB
:100B2000DF91CF911F910F9108951F920F920FB6F1
:100B30000F9211242F933F938F939F93AF93BF9363
:100B40008091510190915201A0915301B0915401B3
:100B50003091500126E0230F2D3730F029E8230F84
:100B60000396A11DB11D03C00296A11DB11D2093C6
:100B700050018093510190935201A0935301B0937F
:100B800054018091550190915601A0915701B09167
:100B900058010196A11DB11D8093550190935601F6
:100BA000A0935701B0935801BF91AF919F918F913E
:100BB0003F912F910F900FBE0F901F9018951F928D
:100BC0000F920FB60F9211242F933F934F935F9381
:100BD0006F937F938F939F93AF93BF93CF93EF9335
:100BE000FF9326B3C0914B01822F8C2790914F0128
:100BF000922330914D01C323C92BC82320934B016D
:100C0000C0FF05C0E0918000F09181000995C1FF0F
:100C100005C0E0918200F09183000995C2FF05C0F4
:100C2000E0918600F09187000995C3FF05C0E0912F
:100C30008400F09185000995FF91EF91CF91BF91CC
:100C4000AF919F918F917F916F915F914F913F9164
:100C50002F910F900FBE0F901F9018951F920F921B
:100C60000FB60F9211242F933F934F935F936F937F
:100C70007F938F939F93AF93BF93CF93EF93FF9304
:100C800080914901823009F44CC028F4882359F03E
:100C9000813051F186C0843009F449C010F18530AB
:100CA00009F467C07EC08FB1882331F08FB186957B
:100CB00090915F01891330C0789B0DC0E0915D0178
:100CC000F0915E01309729F08091590180935A018B
:100CD000099581E001C084E0809349011FB8D69A4C
:100CE0005EC08FB1811118C090915A018091590155
:100CF000981791F080915A018F5F8F7080935A01FD
:100D0000E0915A01F0E0E654FF4F80818FB982E014
:100D100080934901D69A03C0D69888EA8DB980E7B6
:100D20003FC083E080934901D6981FB838C085E062
:100D300080934901D69880E78EB9E0915B01F091EC
:100D40005C01309771F1C091780180917901C817E9
:100D500041F18EB18E7AE9F3759B23C090917901B0
:100D600080917801891B8F7090E00995C09379017B
:100D700018C084E0809349019FB1809178018F5F12
:100D80008F7020917901821749F080937801E0916A
:100D90007801F0E0E655FF4F9083A0CFD6988EE71C
:100DA0008EB9FF91EF91CF91BF91AF919F918F91AC
:100DB0007F916F915F914F913F912F910F900FBE57
:100DC0000F901F9018951F920F920FB60F9211243B
:100DD0002F933F934F935F936F937F938F939F9343
:100DE000AF93BF93CF93EF93FF93E0915B01F091AB
:100DF0005C01309781F0C091780180917901C8172A
:100E000051F09091790180917801891B8F7090E069
:100E10000995C093790110924901D698CC9B04C0E2
:100E2000CE9BFCCF88EA01C088EF8DB980EF8EB9E8
:100E3000FF91EF91CF91BF91AF919F918F917F9152
:100E40006F915F914F913F912F910F900FBE0F9037
:100E50001F901895CF93DF9300D0CDB7DEB781B741
:100E600081BF80B7826080BF80B7816080BF83B759
:100E7000887F836083BF789489B7816089BF8EB58E
:100E8000887F8EBD8FB581608FBD8FB58D7F8FBD03
:100E90008EB5877F8EBD8EB58F7E8EBD8EB58360FD
:100EA0008EBD86B18877866886B9379A62E089E018
:100EB000ECD962E08AE0E9D962E081E0E6D962E05B
:100EC00082E0E3D961E087E0E0D980E090E01BDADE
:100ED00061E083E0DAD960E083E0A3D962E088E0F2
:100EE000D4D960E080E0D1D916B884E885BF80E825
:100EF00085BF85B7877E85BF85B7806285BF65EA78
:100F000070E080E090E0A3DD8091A5008F3F41F488
:100F100080E68093A50065EA70E080E090E0EEDD79
:100F20008091A5008850803740F080E68093A5002E
:100F300065EA70E080E090E0E1DD6CE870E081E07F
:100F400090E085DD80918C008F3F39F410928C0009
:100F50006CE870E081E090E0D1DD60EA70E083E071
:100F600090E075DD8091A0008F3F39F41092A000D1
:100F700060EA70E083E090E0C1DD61EA70E084E067
:100F800090E06EDD8091A1009091A200019649F45D
:100F90001092A2001092A10061EA70E084E090E05B
:100FA00088DD63EA70E086E090E05ADD8091A3007E
:100FB0009091A400019649F41092A4001092A3000D
:100FC00063EA70E084E090E074DD6AE870E088E055
:100FD00090E046DD80918A0090918B00019659F453
:100FE0008AE090E090938B0080938A006AE870E03A
:100FF00088E090E05EDD6FE970E082E090E027DD60
:101000008091A1009091A200892B19F080E090E0DE
:1010100003C080919F0090E076D961DC8BEF91E076
:10102000909387008093860080914F018460809325
:101030004F0180914D01846080934D0186B3809370
:101040004B0180B5846080BD8BB780628BBF9AD81E
:1010500061E083E0E6D892E0692E712C03E010E0B5
:1010600024E0E22EF12C36E0C32ED12C48E0A42E51
:10107000B12C88248A94912C80918800813009F0C9
:1010800054C02DDC80918C0087FF07C061E080E0B8
:10109000FCD860E080E0C5D803C060E080E0F5D80F
:1010A0008091A5008850803720F080E68093A500CD
:1010B00069D86091A5001A821982CE010196E2DCFE
:1010C00060918C0022242394312C3A822982CE0113
:1010D0000196D8DC60919F007A826982CE010196E8
:1010E000D1DC6091A0001A830983CE010196CADC8D
:1010F0006091A1007091A200FA82E982CE0101966E
:10110000C1DC6091A3007091A400DA82C982CE0193
:101110000196B8DC60918A0070918B00BA82A98236
:10112000CE010196AFDC1092880085B7806285BF42
:10113000889585B78F7D85BF80916201909163010D
:10114000892B21F48091600190E09AC03DD92091D3
:101150006A0130916B0140916C0150916D011B014E
:101160002C01221A330A440A550A80916201909197
:101170006301A0E0B0E082159305A405B50508F46D
:101180005DC022D9209166013091670140916801CC
:1011900050916901DC01CB01821B930BA40BB50BB1
:1011A0002091700130917101409172015091730151
:1011B00082179307A407B50708F45ECF4091760124
:1011C000509177018091740190917501840F951F62
:1011D00090937501809374012091600130E06091DB
:1011E0006101261B3109281739073CF451954195B7
:1011F0005109509377014093760197FF04C01092F4
:1012000075011092740180917401909175018F3F66
:10121000910529F024F090927501809274018091DB
:101220007401909175016FD8CFD860936601709367
:10123000670180936801909369011ECFC5D8209102
:101240006A0130916B0140916C0150916D011B015D
:101250002C01221A330A440A550A20916201309166
:1012600063018091640190916501820F931FA0E05A
:10127000B0E082159305A405B50520F080E090E06C
:1012800042D8FACEA1D860936A0170936B01809323
:101290006C0190936D0198D860936601709367011B
:1012A00080936801909369018091610190E090932F
:1012B0007701809376011092750110927401DCCE53
:1012C000EAE0F1E014AE15AE16AEEBECF0E014AED1
:1012D00015AE16AEE0E6F1E01082118213821282A2
:1012E00015821482158A148A0895E199FECF9FBB56
:1012F0008EBBE09A99278DB30895262FE199FECFF2
:101300001CBA9FBB8EBB2DBB0FB6F894E29AE19A34
:101310000FBE019608955058BB27AA270ED089C149
:101320007AD130F07FD120F031F49F3F11F41EF4D8
:101330006FC10EF4E095E7FB3CC1E92F8BD180F340
:10134000BA17620773078407950718F071F49EF5C2
:10135000BAC10EF4E0950B2EBA2FA02D0B01B901E6
:1013600090010C01CA01A0011124FF27591B99F01B
:10137000593F50F4503E68F11A16F040A22F232F27
:10138000342F4427585FF3CF469537952795A79577
:10139000F0405395C9F77EF41F16BA0B620B730B1E
:1013A000840BBAF09150A1F0FF0FBB1F661F771F8F
:1013B000881FC2F70EC0BA0F621F731F841F48F444
:1013C000879577956795B795F7959E3F08F0B3CFCA
:1013D0009395880F08F09927EE0F979587950895B4
:1013E0005BD180F09F3740F491110EF46DC160E045
:1013F00070E080E89FE3089526F01B16611D711DC3
:10140000811DDDC0F7C00CD014C10CD140F003D158
:1014100030F021F45F3F19F0CCC0511155C1F8C034
:1014200019D198F39923C9F35523B1F3951B550BA3
:10143000BB27AA2762177307840738F09F5F5F4FA7
:10144000220F331F441FAA1FA9F333D00E2E3AF0E8
:10145000E0E830D091505040E695001CCAF729D002
:10146000FE2F27D0660F771F881FBB1F2617370751
:101470004807AB07B0E809F0BB0B802DBF01FF2781
:1014800093585F4F2AF09E3F510568F092C01CC1EF
:101490005F3FECF3983EDCF3869577956795B795BB
:1014A000F7959F5FC9F7880F911D9695879597F9D6
:1014B0000895E1E0660F771F881FBB1F621773074F
:1014C0008407BA0720F0621B730B840BBA0BEE1F64
:1014D00088F7E095089504D06894B111F5C0089597
:1014E000C1D088F09F5790F0B92F9927B751A0F03D
:1014F000D1F0660F771F881F991F1AF0BA95C9F7A8
:1015000012C0B13081F0DFD0B1E00895DCC0672FA8
:10151000782F8827B85F39F0B93FCCF38695779557
:101520006795B395D9F73EF4909580957095619540
:101530007F4F8F4F9F4F0895E89409C097FB3EF46B
:1015400090958095709561957F4F8F4F9F4F992310
:10155000A9F0F92F96E9BB279395F695879577958E
:101560006795B795F111F8CFFAF4BB0F11F460FF4E
:101570001BC06F5F7F4F8F4F9F4F16C0882311F0A6
:1015800096E911C0772321F09EE8872F762F05C0BA
:10159000662371F096E8862F70E060E02AF09A9555
:1015A000660F771F881FDAF7880F9695879597F94A
:1015B000089597F99F6780E870E060E008958823B8
:1015C00071F4772321F09850872B762F07C066237C
:1015D00011F499270DC09051862B70E060E02AF03D
:1015E0009A95660F771F881FDAF7880F969587956B
:1015F00097F908959F3F31F0915020F487957795A2
:101600006795B795880F911D9695879597F90895D9
:101610009FEF80EC089500240A941616170618060A
:101620000906089500240A941216130614060506E6
:101630000895092E0394000C11F4882352F0BB0F77
:1016400040F4BF2B11F460FF04C06F5F7F4F8F4FDA
:101650009F4F089557FD9058440F551F59F05F3F15
:1016600071F04795880F97FB991F61F09F3F79F0C4
:1016700087950895121613061406551FF2CF469546
:10168000F1DF08C0161617061806991FF1CF8695C8
:101690007105610508940895E5DFA0F0BEE7B9176C
:1016A00088F4BB279F3860F41616B11D672F782F7A
:1016B0008827985FF7CF869577956795B11D9395A5
:1016C0009639C8F30895E894BB2766277727CB019E
:1016D00097F9089503D008F48FEF0895990F000843
:1016E000550FAA0BE0E8FEEF16161706E807F907F4
:1016F000C0F012161306E407F50798F0621B730B8F
:10170000840B950B39F40A2661F0232B242B252B0F
:1017100021F408950A2609F4A140A6958FEF811DB2
:10172000811D089597FB072E16F4009406D077FDCF
:1017300008D00BD007FC05D03EF4909581959F4FC3
:101740000895709561957F4F0895AA1BBB1B51E1C9
:1017500007C0AA1FBB1FA617B70710F0A61BB70B21
:10176000881F991F5A95A9F780959095BC01CD01C6
:101770000895EE0FFF1F0590F491E02D0994F89461
:02178000FFCF99
:1017820080FFFFE0800000000000000000800000F9
:10179200000000000000FFFFFFFFFFFFFF0000004E
:1017A200F001F001F001F00101000A000040000028
:1017B20000000000000040000000000000000000E7
:0A17C2000100000000605D0001005E
:00000001FF
