:1000000010C01FC01EC01DC01CC01BC01AC019C01C
:1000100018C017C016C032C014C013C012C011C01F
:1000200010C011241FBECFE5D2E0DEBFCDBF20E05F
:10003000A0E6B0E001C01D92A936B207E1F768D092
:10004000A7C0DECFCF92DF92EF92FF92C11482E081
:10005000D806E104F10469F0C60184D08F3F19F09D
:100060006FEFC60187D08FEFC81AD80AE80AF80ADE
:10007000EDCFFF90EF90DF90CF9008951F920F92F9
:100080000FB60F9211242F933F938F939F93AF93AB
:10009000BF938091650090916600A0916700B09138
:1000A00068003091640026E0230F2D3730F029E8F6
:1000B000230F0396A11DB11D03C00296A11DB11D02
:1000C000209364008093650090936600A09367007E
:1000D000B09368008091600090916100A0916200EF
:1000E000B09163000196A11DB11D809360009093B3
:1000F0006100A0936200B0936300BF91AF919F91A4
:100100008F913F912F910F900FBE0F901F901895D8
:1001100081B781BF80B7826080BF80B7816080BFB8
:1001200083B7887F836083BF789489B7816089BFF4
:100130008EB5887F8EBD8FB581608FBD8FB58D7F69
:100140008FBD8EB5877F8EBD8EB58F7E8EBD8EB5F1
:1001500083608EBD86B18877866886B9379A72DFEC
:1001600071DFFECFE199FECF9FBB8EBBE09A99274E
:100170008DB30895262FE199FECF1CBA9FBB8EBB8D
:100180002DBB0FB6F894E29AE19A0FBE019608953E
:04019000F894FFCF11
:00000001FF
